{"abi":[{"type":"constructor","inputs":[],"stateMutability":"nonpayable"},{"type":"function","name":"getStudentTotalPaid","inputs":[{"name":"_studentId","type":"string","internalType":"string"}],"outputs":[{"name":"","type":"uint256","internalType":"uint256"}],"stateMutability":"view"},{"type":"function","name":"owner","inputs":[],"outputs":[{"name":"","type":"address","internalType":"address"}],"stateMutability":"view"},{"type":"function","name":"payFee","inputs":[{"name":"_studentId","type":"string","internalType":"string"}],"outputs":[],"stateMutability":"payable"},{"type":"function","name":"receipts","inputs":[{"name":"","type":"bytes32","internalType":"bytes32"}],"outputs":[{"name":"studentId","type":"string","internalType":"string"},{"name":"amount","type":"uint256","internalType":"uint256"},{"name":"timestamp","type":"uint256","internalType":"uint256"},{"name":"exists","type":"bool","internalType":"bool"}],"stateMutability":"view"},{"type":"function","name":"renounceOwnership","inputs":[],"outputs":[],"stateMutability":"nonpayable"},{"type":"function","name":"transferOwnership","inputs":[{"name":"newOwner","type":"address","internalType":"address"}],"outputs":[],"stateMutability":"nonpayable"},{"type":"function","name":"verifyReceipt","inputs":[{"name":"_receiptHash","type":"bytes32","internalType":"bytes32"}],"outputs":[{"name":"studentId","type":"string","internalType":"string"},{"name":"amount","type":"uint256","internalType":"uint256"},{"name":"timestamp","type":"uint256","internalType":"uint256"}],"stateMutability":"view"},{"type":"function","name":"withdraw","inputs":[],"outputs":[],"stateMutability":"nonpayable"},{"type":"event","name":"FeePaid","inputs":[{"name":"payer","type":"address","indexed":true,"internalType":"address"},{"name":"studentId","type":"string","indexed":false,"internalType":"string"},{"name":"amount","type":"uint256","indexed":false,"internalType":"uint256"},{"name":"timestamp","type":"uint256","indexed":false,"internalType":"uint256"},{"name":"receiptHash","type":"bytes32","indexed":false,"internalType":"bytes32"}],"anonymous":false},{"type":"event","name":"FundsWithdrawn","inputs":[{"name":"owner","type":"address","indexed":true,"internalType":"address"},{"name":"amount","type":"uint256","indexed":false,"internalType":"uint256"}],"anonymous":false},{"type":"event","name":"OwnershipTransferred","inputs":[{"name":"previousOwner","type":"address","indexed":true,"internalType":"address"},{"name":"newOwner","type":"address","indexed":true,"internalType":"address"}],"anonymous":false},{"type":"error","name":"OwnableInvalidOwner","inputs":[{"name":"owner","type":"address","internalType":"address"}]},{"type":"error","name":"OwnableUnauthorizedAccount","inputs":[{"name":"account","type":"address","internalType":"address"}]}],"bytecode":{"object":"0x608080604052346071573315605e575f8054336001600160a01b0319821681178355916001600160a01b03909116907f8be0079c531659141344cd1fd0a4f28419497f9722a3daafe3b4186f6b6457e09080a361095b90816100768239f35b631e4fbdf760e01b5f525f60045260245ffd5b5f80fdfe60806040526004361015610011575f80fd5b5f3560e01c80633ccfd60b14610630578063715018a6146105d95780638174794e146104ff5780638afe906f146104cc5780638da5cb5b146104a5578063b23bf44314610168578063ef6cf04d146100fe5763f2fde38b14610071575f80fd5b346100fa5760203660031901126100fa576004356001600160a01b038116908190036100fa5761009f6108ff565b80156100e7575f80546001600160a01b03198116831782556001600160a01b0316907f8be0079c531659141344cd1fd0a4f28419497f9722a3daafe3b4186f6b6457e09080a3005b631e4fbdf760e01b5f525f60045260245ffd5b5f80fd5b346100fa5760203660031901126100fa576004355f52600260205261015260405f206101298161085f565b9060018101549060ff600360028301549201541690604051948594608086526080860190610741565b9260208501526040840152151560608301520390f35b610171366107bf565b34156104605780511561041b5760405190602082013360601b81528151926101be6040603483602087019780898484015e8101348382015242605482015203016020810184520182610781565b51902091825f52600260205260ff600360405f200154166103e2576040516101e581610765565b828152602081019034825260408101428152606082019260018452865f52600260205260405f20925180519067ffffffffffffffff82116103ce5761022a8554610827565b601f811161037d575b50602090601f831160011461031657600395949392915f918361030b575b50508160011b915f1990871b1c19161783555b516001830155516002820155019051151560ff801983541691161790556020604051809284518091835e810160018152030190209081543481018091116102f7577f4873dd72a1e01e9743c434429f962dc461834f9ad0310f388352bc6144bffee292556102dd60405191608083526080830190610741565b9234602083015242604083015260608201528033930390a2005b634e487b7160e01b5f52601160045260245ffd5b015190508a80610251565b90601f19831691865f52815f20925f5b8181106103655750916001939185600399989796941061034e575b505050811b018355610264565b01515f1983891b60f8161c191690558a8080610341565b92936020600181928786015181550195019301610326565b8281111561023357855f5260205f20601f840160051c90602085106103c6575b81601f9101920160051c03905f5b8281106103b9575050610233565b5f828201556001016103ab565b5f915061039d565b634e487b7160e01b5f52604160045260245ffd5b60405162461bcd60e51b8152602060048201526011602482015270111d5c1b1a58d85d19481c9958d95a5c1d607a1b6044820152606490fd5b60405162461bcd60e51b815260206004820152601a60248201527f53747564656e742049442063616e6e6f7420626520656d7074790000000000006044820152606490fd5b60405162461bcd60e51b815260206004820152601d60248201527f466565206d7573742062652067726561746572207468616e207a65726f0000006044820152606490fd5b346100fa575f3660031901126100fa575f546040516001600160a01b039091168152602090f35b346100fa57602080806104de366107bf565b604051928184925191829101835e8101600181520301902054604051908152f35b346100fa5760203660031901126100fa57600435805f52600260205260ff600360405f200154161561059b575f52600260205261058c60405f2060405161054581610765565b61054e8261085f565b91828252600181015491826020820152606060ff60036002850154948560408601520154161515910152604051938493606085526060850190610741565b91602084015260408301520390f35b60405162461bcd60e51b8152602060048201526016602482015275149958d95a5c1d08191bd95cc81b9bdd08195e1a5cdd60521b6044820152606490fd5b346100fa575f3660031901126100fa576105f16108ff565b5f80546001600160a01b0319811682556001600160a01b03167f8be0079c531659141344cd1fd0a4f28419497f9722a3daafe3b4186f6b6457e08280a3005b346100fa575f3660031901126100fa576106486108ff565b478015610705575f8080808460018060a01b038254165af13d15610700573d610670816107a3565b9061067e6040519283610781565b81525f60203d92013e5b156106c7575f546040519182526001600160a01b0316907feaff4b37086828766ad3268786972c0cd24259d4c87a80f9d3963a3c3d999b0d90602090a2005b60405162461bcd60e51b815260206004820152601160248201527015da5d1a191c985dd85b0819985a5b1959607a1b6044820152606490fd5b610688565b60405162461bcd60e51b81526020600482015260146024820152734e6f2066756e647320746f20776974686472617760601b6044820152606490fd5b805180835260209291819084018484015e5f828201840152601f01601f1916010190565b6080810190811067ffffffffffffffff8211176103ce57604052565b90601f8019910116810190811067ffffffffffffffff8211176103ce57604052565b67ffffffffffffffff81116103ce57601f01601f191660200190565b60206003198201126100fa5760043567ffffffffffffffff81116100fa57816023820112156100fa578060040135906107f7826107a3565b926108056040519485610781565b828452602483830101116100fa57815f92602460209301838601378301015290565b90600182811c92168015610855575b602083101461084157565b634e487b7160e01b5f52602260045260245ffd5b91607f1691610836565b9060405191825f82549261087284610827565b80845293600181169081156108dd5750600114610899575b5061089792500383610781565b565b90505f9291925260205f20905f915b8183106108c1575050906020610897928201015f61088a565b60209193508060019154838589010152019101909184926108a8565b90506020925061089794915060ff191682840152151560051b8201015f61088a565b5f546001600160a01b0316330361091257565b63118cdaa760e01b5f523360045260245ffdfea264697066735822122066a97313ab304a12a9c9475a1662583f2386e2c720fc935db3c037ea87385b8c64736f6c63430008210033","linkReferences":{}},"methodIdentifiers":{"getStudentTotalPaid(string)":"8afe906f","owner()":"8da5cb5b","payFee(string)":"b23bf443","receipts(bytes32)":"ef6cf04d","renounceOwnership()":"715018a6","transferOwnership(address)":"f2fde38b","verifyReceipt(bytes32)":"8174794e","withdraw()":"3ccfd60b"},"id":25}