{"abi":[{"type":"function","name":"proofs","inputs":[{"name":"","type":"bytes32","internalType":"bytes32"}],"outputs":[{"name":"","type":"bool","internalType":"bool"}],"stateMutability":"view"},{"type":"function","name":"storeProof","inputs":[{"name":"hash","type":"bytes32","internalType":"bytes32"}],"outputs":[],"stateMutability":"nonpayable"},{"type":"function","name":"verifyProof","inputs":[{"name":"hash","type":"bytes32","internalType":"bytes32"}],"outputs":[{"name":"","type":"bool","internalType":"bool"}],"stateMutability":"view"}],"bytecode":{"object":"0x6080806040523460145760f290816100198239f35b5f80fdfe60808060405260043610156011575f80fd5b5f3560e01c908163444d95b0146094575080638952877b1460695763b142b4ec146039575f80fd5b3460655760203660031901126065576004355f525f602052602060ff60405f2054166040519015158152f35b5f80fd5b3460655760203660031901126065576004355f525f60205260405f20600160ff198254161790555f80f35b3460655760203660031901126065576020906004355f525f825260ff60405f20541615158152f3fea2646970667358221220c40fcadbe130612774b933d95b9b4511b337499ecb5058e014c78aea25df907664736f6c63430008210033","linkReferences":{}},"methodIdentifiers":{"proofs(bytes32)":"444d95b0","storeProof(bytes32)":"8952877b","verifyProof(bytes32)":"b142b4ec"},"id":24}